:10000000803102288731E62FFE0012001E00FE0B11
:1000100005280034FA00943114248031F0017A0864
:1000200094314F2480313C3094311E24803138305B
:1000300094311E2480313C3094311E24803138307C
:1000400094311E2480313C3094311E24803138306C
:1000500094311E2480312C3094311E24803128307C
:1000600094311E2480310C3094311E2480310830AC
:1000700094311E248031FC3094311E248031F830BC
:1000800094311E2480317A0896316E268031F80032
:100090007808F90094311924080020004008C400B1
:1000A0004108C5004208C6000310450D460DC700B3
:1000B0004708CD004D08031D66280030C3000030FE
:1000C000C2000030C1000030C00008004008C40079
:1000D0004108C5004208C6001730C636C50CC40C1E
:1000E000890B6D284408C7004708C800C117FF30B6
:1000F000C005FF30C1050030C2054008C9004108F5
:10010000CA004208CB00CC018E30CD02CD1FA428FE
:100110004D08803A8F3E031896280030C300003007
:10012000C2000030C1000030C00008000130CC36F1
:10013000CB0CCA0CC90C890B97280130C4004408A9
:10014000CD070319BD28962818304D02031CBA2884
:100150000030C3000030C2000030C1000030C000D9
:1001600008000130C935CA0DCB0DCC0D890BB22862
:100170000130CD024D08031DB12848080319CB28D2
:10018000C909CA09CB09CC09C90A0319CA0A031942
:10019000CB0A0319CC0A4C08C3004B08C2004A081A
:1001A000C1004908C00008002000A2000310F50D9E
:1001B0000310F50D0310F50D7508F8007808F2002E
:1001C00022089431A82480310130F80078082000FA
:1001D000A2077608E03EF8007808F6007708031DCD
:1001E000F628FF30A0000030A100F828A001A101EE
:1001F0002008F8007808F700A3010830230203184C
:100200002C297608F800F901F80EF90EF030F905FE
:1002100078080F39F904F030F8050030FA0088301A
:10022000FB0078087A07FC0079087B3DFD00230875
:100230007C0784007D0803187D0A85000008770686
:100240009431822480310130F80078082000A3071F
:1002500008302302031C01297508F8007808F20011
:1002600022089431A82480310830F8007808200052
:10027000A30010302302031808007608F800F901E3
:10028000F80EF90EF030F90578080F39F904F0305E
:10029000F8050030FA008830FB0078087A07FC0087
:1002A00079087B3DFD0023087C0784007D08031846
:1002B0007D0A850000087706943182248031013060
:1002C000F80078082000A307392920004308C60059
:1002D0004408C7004508C8000310470D480DC90071
:1002E0004908CE004E08031D7C290030C0000030B4
:1002F000C1000030C20008004008C6004108C70025
:100300004208C8000310470D480DC9004908CF0036
:100310004F08031D92290030C0000030C10000309A
:10032000C20008000030CB000030CC000030CD000F
:1003300089304F07C6004608CE024308C60044086D
:10034000C7004508C8001030C836C70CC60C890B5A
:10035000A4294608C9004908CF004008C600410842
:10036000C7004208C8001030C836C70CC60C890B3D
:10037000B4294608C9004908CF068030C60046089F
:10038000CF05C417FF30C305FF30C4050030C505D5
:10039000C117FF30C005FF30C1050030C20518305D
:1003A000C6004608CA000130CB35CC0DCD0D890BF7
:1003B000D42942084502031DE32941084402031DD4
:1003C000E32940084302031CEC294008C30241080A
:1003D000C43B4208C53B4B140130C335C40DC50DA9
:1003E000890BED290130CA02031DD3294B08F00007
:1003F0004C08F1004D08F2004E08C6004608F30014
:100400004F08C7004708F4009731202770082000E4
:10041000C0007108C1007208C20008002000200856
:10042000A6002108A7002208A8000310270D280D08
:10043000A9002908AA002A08031D252A0030A000C7
:100440000030A1000030A20008002308A600240804
:10045000A7002508A8000310270D280DA9002908CA
:10046000AF002F08031D3B2A0030A0000030A10080
:100470000030A20008002F087B3EA6002608AA072D
:100480002008A6002108A7002208A8001030A836DE
:10049000A70CA60C890B472A2608A9002908AF003B
:1004A0002308A6002408A7002508A8001030A836B5
:1004B000A70CA60C890B572A2608A9002908AF0605
:1004C0008030A6002608AF05A117A417FF30A305AA
:1004D000FF30A4050030A5050030AB000030AC00B3
:1004E0000030AD000730A6002608AE00201C7E2A92
:1004F0002308AB072408AC3D2508AD3D0130A236EA
:10050000A10CA00C890B7F2A0130A335A40DA50DE9
:10051000890B852A0130AE02031D762A0930A60018
:100520002608AE00201C9A2A2308AB072408AC3DFD
:100530002508AD3D0130A236A10CA00C890B9B2AE9
:100540000130AD36AC0CAB0C890BA12A0130AE02E8
:10055000031D922A2B08F0002C08F1002D08F20050
:100560002A08A6002608F3002F08A7002708F40091
:100570009731202770082000A0007108A1007208A0
:10058000A200080020003308B9003408BA0035087A
:10059000BB0003103A0D3B0DBC003C08BF00360801
:1005A000B9003708BA003808BB0003103A0D3B0DFC
:1005B000BC003C08BE003F080319EA2A3E083F027F
:1005C0000318F12A3F03FF3A3E07B90019303902F8
:1005D000031CF12A3608B3003708B4003808B50008
:1005E00008003E08031908003F083E020318002BCC
:1005F0003E03FF3A3F07B9001930390203180800DB
:100600000630B9003908BD00B51BBD17B81B3D1732
:10061000B417FF30B305FF30B4050030B505B71788
:10062000FF30B605FF30B7050030B8053E083F0281
:1006300003183C2B0130B635B70DB80D890B1B2BB9
:100640000130BE023E083F060319372B0130BD02C0
:100650003D0807390319372B1A2B0130B536B40C76
:10066000B30C890B2E2B0130B9003908BF073F08A6
:100670003E060319612B2D2B3F083E020318612B08
:100680000130B335B40DB50D890B412B0130BF02DC
:100690003E083F0603195D2B0130BD023D080739B6
:1006A00003195D2B402B0130B836B70CB60C890B03
:1006B000542B0130B9003908BE073F083E06031D20
:1006C000532BBD1F732BFF30B306FF30B406FF3032
:1006D000B5060130B307003003180130B40700300D
:1006E00003180130B5073D1F852BFF30B606FF30DC
:1006F000B706FF30B8060130B607003003180130E6
:10070000B707003003180130B807BD013308B6073A
:100710003408B73D3508B83DB81FA02BFF30B606EA
:10072000FF30B706FF30B8060130B60700300318B7
:100730000130B707003003180130B807BD01BD0A0A
:100740003608F0003708F1003808F2003F08B90019
:100750003908F3003D08BA003A08F4009731202721
:1007600070082000B3007108B4007208B5000800DA
:100770002000AC0020002108A4002008A300A00A4B
:100780000319A10A23088400240885000008A50095
:100790002508AB002B080319F52C25302B0603196F
:1007A000E52B2C0A86008701160001040319072C8B
:1007B0002B08A3002308F0002C0A86008701413F84
:1007C0008A00403F0A008331BA2BA7011A2C220865
:1007D0008600870101088400850102308107000836
:1007E000A3002308AB002C0A860087011600010431
:1007F0000319072C2B08A3002308F0002C0A8600FD
:100800008701413F8A00403F0A008431BA2B200013
:100810002B08A3002C0886008701010886008701A9
:10082000230881000130A3002C08860087012308DB
:100830008107BA2B2108A4002008A300A00A0319ED
:10084000A10A23088400240885000008AB00003AB0
:100850000319F52C633A0319E72B073A0319342CD3
:100860000D3A0319342CF32B220886008701010866
:100870008400850102308107003FA900013FAA00E2
:10088000AA1F4B2C0330A3002308A704A909AA0917
:10089000A90A0319AA0AAB01AB0A05302B060319F2
:1008A000702C2B08A300A401A335A40D003023074E
:1008B00084009830243D8500003FA500013FA6003C
:1008C00026082A02031D662C25082902031C702C09
:1008D0000130A3002308AB0705302B06031D512C64
:1008E0002708033903199A2C2C0A86008701160061
:1008F00001040319882C2D30A3002308F0002C0AD2
:1009000086008701413F8A00403F0A0084319A2CCB
:100910002D302000A3002C088600870101088600E6
:100920008701230881000130A3002C08860087017D
:100930002308810720002B08A3002308A800FF300C
:100940002000A3002308A807280A0319BA2B0A309D
:10095000F8000030F9002808A300A401A335A40D75
:100960000030230784009830243D8500003FF000CC
:10097000013FF1002A08F3002908F200963103260E
:1009800083317108FB007008FA00953174258331BA
:100990007808303E2000A5002508AB002C0A860010
:1009A0008701160001040319E22C2B08A300230879
:1009B000F0002C0A86008701413F8A00403F0A0070
:1009C00084319F2C20002B08A3002C08860087016F
:1009D000010886008701230881000130A3002C084C
:1009E00086008701230881079F2CA001A101080030
:1009F0009431D42484310B30F0000030F100943174
:100A000041248431943135248431273080310A20C7
:100A1000843140302000D0005008F8002730963153
:100A200037268431F801F80A27309531CF258431F3
:100A300097318427843100309531A0258431943159
:100A40005E248431220097161712A2309700C0301E
:100A500021009E002D3021009D0003302000D00099
:100A60009730890B312DD00B312D003221009D1490
:100A70009D18382D1B082000D000D10121001C0832
:100A80002000D200D3015208D300D20150085207EF
:100A9000F8005108533DF9009431952484317808C9
:100AA0002000A3007908A4007A08A500E430A00083
:100AB0000A30A1003E30A20082310E228431200093
:100AC0002008B0002108B1002208B20094312C2483
:100AD000843120003008B6003108B7003208B80071
:100AE000E430B3000A30B4004330B5008231C22292
:100AF000843120003308C0003408C1003508C2002A
:100B000080314D208431200041082100C90020009F
:100B100040082100C80019309D000D302000D00091
:100B2000FB30890B912DD00B912D003221009D14AB
:100B30009D18982D1C08CD001B08CC000A30200001
:100B4000AD009830AE0021004D082000B00021001B
:100B50004C082000AF00210049082000B20021000D
:100B600048082000B10003100C1903140030093D9F
:100B7000D000D1015008B3005108B4009431BE2414
:100B8000843102302000D1004530D000A930890BDB
:100B9000C72DD00BC72DD10BC72D003221008C01E2
:100BA00023008C010030210049021430031948024F
:100BB000031CE32F20000C11F801F80A27309531AF
:100BC000CF2584310030210049020A300319480240
:100BD00003180E2E85302000AD009830AE0058303E
:100BE00095310A25843158302000D0005008F80093
:100BF0001030D1005108F90027309631C5268431D4
:100C00001A302000D1005E30D0006E30890B062EE5
:100C1000D00B062ED10B062E00005D2E00302100D9
:100C2000490214300319480203183A2EB330200049
:100C3000AD009830AE00583095310A2584315830D7
:100C40002000D0005008F8000B30D1005108F90006
:100C500027309631C52684311A302000D1005E300D
:100C6000D0006E30890B322ED00B322ED10B322EAB
:100C700000005D2E96302000AD009830AE00583058
:100C800095310A25843158302000D0005008F800F2
:100C90000D30D1005108F90027309631C526843136
:100CA0001A302000D1005E30D0006E30890B562EF5
:100CB000D00B562ED10B562E0000BF302000AD00B9
:100CC0009830AE00583095310A2584312000A401B7
:100CD0005830D0005008A500A601003095312725D6
:100CE0008431CE302000AD009830AE00210049089C
:100CF0002000B000210048082000AF002530B100DE
:100D00000030B200583095310A2584312000A4010A
:100D10005830D0005008A500A60102309531272593
:100D20008431A6302000AD009830AE0058309531A7
:100D30000A2584312000A4015830D0005008A500B5
:100D4000A6010430953127258431C9302000AD003B
:100D50009830AE0021004D082000B00021004C0862
:100D60002000AF00583095310A2584312000A401BD
:100D70005830D0005008A500A6010630953127252F
:100D8000843102302000D1000430D000BA30890B09
:100D9000C72ED00BC72ED10BC72E00002D3021003F
:100DA0009D0003302000D0009730890BD52ED00B4A
:100DB000D52E003221009D149D18DC2E1B0820002A
:100DC000D000D10121001C082000D200D30152081C
:100DD000D300D20150085207F8005108533DF900E2
:100DE00094319524843178082000A3007908A40068
:100DF0007A08A500D830A0000C30A1003E30A20037
:100E000082310E22843120002008B0002108B10078
:100E10002208B20094312C24843120003008B6001E
:100E20003108B7003208B800D830B3000C30B40035
:100E30004330B5008231C222843120003308C00023
:100E40003408C1003508C20080314D2084312000B3
:100E500041082100C900200040082100C800753069
:100E60009D000D302000D000FB30890B352FD00BBA
:100E7000352F003221009D149D183C2F1C08CD00F9
:100E80001B08CC001B08713E2000D000FD30210063
:100E90001C3D2000D10050082100CC00200051084A
:100EA0002100CD0000302000C0008030C10044305F
:100EB000C2000030A000A030A1004030A2002100FC
:100EC0004D08F9004C08F8009431952484317808D5
:100ED0002000A3007908A4007A08A50082310E2220
:100EE000843120002008C3002108C4002208C50066
:100EF00081316521843120004008EC004108ED007B
:100F00004208EE00D730C0002330C1003C30C200A0
:100F10000030B3000030B400BF30B5006C08B6003C
:100F20006D08B7006E08B8008231C22284312000FB
:100F30003308C3003408C4003508C5008131652179
:100F4000843120004008D5004108D6004208D7006F
:100F50000A30AD009830AE0021004D082000B000EE
:100F600021004C082000AF00210049082000B200F9
:100F7000210048082000B10003100C1903140030B0
:100F8000093DD000D1015008B3005108B40094319C
:100F9000BE24843106302000D1001330D000AD30A3
:100FA000890BD02FD00BD02FD10BD02F00322100A6
:100FB0008C0123008C0100302100490214300319F8
:100FC00048020318DA2D20000C15DC2D4C3084006B
:100FD00095308500A03086000030870028308031B1
:100FE0000420EF012100C801C901CA01CB01CC01D5
:100FF000CD01CE01CF01D001D10120008431F82CE8
:101000000034003400340034003400340034003440
:101010000034003400340034003400340034003430
:10102000003400340034F834003400340034003428
:1010300000340034003433343034003400340034AD
:10104000003410340C34063410340C3406340034BC
:1010500000340034003400340034003400340034F0
:101060004034C03478344034C034783440340034B0
:1010700004343F34043404343F340434043400343E
:10108000003470348834FC34083430340034003494
:10109000003418342034FF3421341E34003400343A
:1010A000F0340834F0340034E034183400340034C0
:1010B000003421341C3403341E3421341E340034F3
:1010C0000034F03408348834703400340034003490
:1010D0001E34213423342434193427342134103479
:1010E000103416340E34003400340034003400342C
:1010F0000034003400340034003400340034003450
:10110000003400340034E034183404340234003441
:1011100000340034003407341834203440340034B0
:101120000034023404341834E03400340034003421
:101130000034403420341834073400340034003490
:10114000403440348034F03480344034403400340F
:101150000234023401340F340134023402340034D6
:10116000003400340034F0340034003400340034EF
:101170000134013401341F340134013401340034AA
:1011800000340034003400340034003400340034BF
:101190008034B0347034003400340034003400340F
:1011A000003400340034003400340034003400349F
:1011B0000034013401340134013401340134013488
:1011C000003400340034003400340034003400347F
:1011D000003430343034003400340034003400340F
:1011E0000034003400340034803460341834043463
:1011F00000346034183406340134003400340034D0
:101200000034E0341034083408341034E03400344E
:1012100000340F3410342034203410340F340034B0
:10122000003410341034F834003400340034003406
:101230000034203420343F3420342034003400344F
:10124000003470340834083408348834703400347E
:1012500000343034283424342234213430340034FF
:10126000003430340834883488344834303400341E
:101270000034183420342034203411340E34003437
:1012800000340034C03420341034F83400340034D6
:10129000003407340434243424343F3424340034F8
:1012A0000034F8340834883488340834083400347E
:1012B0000034193421342034203411340E340034F5
:1012C0000034E03410348834883418340034003466
:1012D00000340F3411342034203411340E340034EF
:1012E0000034383408340834C8343834083400340E
:1012F0000034003400343F3400340034003400340F
:10130000003470348834083408348834703400343D
:1013100000341C3422342134213422341C3400346F
:101320000034E0341034083408341034E03400342D
:101330000034003431342234223411340F34003478
:10134000003400340034C034C0340034003400347D
:10135000003400340034303430340034003400348D
:10136000003400340034803400340034003400345D
:1013700000340034803460340034003400340034ED
:1013800000340034803440342034103408340034C5
:10139000003401340234043408341034203400346E
:1013A00040344034403440344034403440340034DD
:1013B0000434043404340434043404340434003471
:1013C0000034083410342034403480340034003485
:1013D000003420341034083404340234013400342E
:1013E000003470344834083408340834F03400349D
:1013F00000340034003430343634013400340034E6
:10140000C0343034C8342834E8341034E034003484
:101410000734183427342434233414340B34003480
:1014200000340034C0343834E03400340034003444
:1014300020343C342334023402342734383420340A
:101440000834F834883488348834703400340034F4
:1014500020343F3420342034203411340E3400340E
:10146000C034303408340834083408343834003494
:101470000734183420342034203410340834003435
:101480000834F8340834083408341034E0340034B4
:1014900020343F3420342034203410340F340034CE
:1014A0000834F83488348834E8340834103400348C
:1014B00020343F3420342034233420341834003492
:1014C0000834F83488348834E8340834103400346C
:1014D00020343F34203400340334003400340034EA
:1014E000C03430340834083408343834003400341C
:1014F000073418342034203422341E3402340034AB
:101500000834F8340834003400340834F83408342B
:1015100020343F3421340134013421343F34203429
:10152000003408340834F834083408340034003403
:101530000034203420343F3420342034003400344C
:101540000034003408340834F834083408340034E3
:10155000C0348034803480347F340034003400342C
:101560000834F8348834C03428341834083400344B
:1015700020343F34203401342634383420340034CD
:101580000834F834083400340034003400340034B3
:1015900020343F342034203420342034303400349C
:1015A0000834F834F8340034F834F83408340034AB
:1015B00020343F3400343F3400343F34203400348E
:1015C0000834F8343034C03400340834F834083483
:1015D00020343F3420340034073418343F3400348E
:1015E000E03410340834083408341034E034003463
:1015F0000F34103420342034203410340F340034AD
:101600000834F8340834083408340834F03400342A
:1016100020343F34213401340134013400340034A7
:10162000E03410340834083408341034E034003422
:101630000F34183424342434383450344F340034C4
:101640000834F8348834883488348834703400346A
:1016500020343F342034003403340C34303420340C
:101660000034703488340834083408343834003492
:101670000034383420342134213422341C340034F2
:10168000183408340834F834083408341834003472
:101690000034003420343F3420340034003400342B
:1016A0000834F8340834003400340834F83408348A
:1016B00000341F3420342034203420341F340034CC
:1016C00008347834883400340034C834383408346A
:1016D00000340034073438340E340134003400341C
:1016E000F83408340034F83400340834F834003462
:1016F00003343C340734003407343C3403340034BE
:101700000834183468348034803468341834083429
:10171000203430342C34033403342C34303420342B
:1017200008343834C8340034C83438340834003409
:101730000034003420343F3420340034003400348A
:101740001034083408340834C834383408340034C9
:1017500020343834263421342034203418340034F2
:10176000003400340034FE340234023402340034D5
:101770000034003400347F3440344034403400348A
:1017800000340C343034C0340034003400340034BD
:10179000003400340034013406343834C0340034AA
:1017A0000034023402340234FE3400340034003495
:1017B00000344034403440347F340034003400344A
:1017C000003400340434023402340234043400346B
:1017D0000034003400340034003400340034003469
:1017E0000034003400340034003400340034003459
:1017F0008034803480348034803480348034803449
:101800000034023402340434003400340034003430
:101810000034003400340034003400340034003428
:101820000034003480348034803480340034003418
:101830000034193424342234223422343F34203406
:101840000834F834003480348034003400340034F8
:1018500000343F3411342034203411340E34003439
:101860000034003400348034803480340034003458
:1018700000340E3411342034203420341134003438
:10188000003400340034803480348834F834003438
:1018900000340E3411342034203410343F342034DA
:1018A0000034003480348034803480340034003498
:1018B00000341F34223422342234223413340034CE
:1018C000003480348034F0348834883488341834D8
:1018D0000034203420343F342034203400340034A9
:1018E00000340034803480348034803480340034D8
:1018F00000346B349434943494349334603400342E
:101900000834F834003480348034803400340034B7
:1019100020343F3421340034003420343F34203428
:101920000034803498349834003400340034003467
:101930000034203420343F34203420340034003448
:101940000034003400348034983498340034003447
:101950000034C0348034803480347F340034003428
:101960000834F83400340034803480348034003457
:1019700020343F34243402342D34303420340034C5
:10198000003408340834F8340034003400340034AF
:101990000034203420343F342034203400340034E8
:1019A0008034803480348034803480348034003417
:1019B00020343F34203400343F34203400343F346A
:1019C00080348034003480348034803400340034F7
:1019D00020343F3421340034003420343F34203468
:1019E0000034003480348034803480340034003457
:1019F00000341F3420342034203420341F34003489
:101A00008034803400348034803400340034003436
:101A10008034FF34A1342034203411340E340034A7
:101A20000034003400348034803480348034003416
:101A300000340E34113420342034A034FF34803488
:101A400080348034803400348034803480340034F6
:101A5000203420343F342134203400340134003425
:101A60000034003480348034803480348034003456
:101A700000343334243424342434243419340034EA
:101A8000003480348034E0348034803400340034D6
:101A90000034003400341F34203420340034003447
:101AA0008034803400340034003480348034003496
:101AB00000341F3420342034203410343F34203498
:101AC0008034803480340034003480348034803476
:101AD000003401340E343034083406340134003418
:101AE0008034803400348034003480348034803456
:101AF0000F3430340C3403340C3430340F340034AD
:101B000000348034803400348034803480340034B5
:101B10000034203431342E340E3431342034003447
:101B20008034803480340034003480348034803415
:101B3000803481348E3470341834063401340034E7
:101B400000348034803480348034803480340034F5
:101B50000034213430342C342234213430340034F5
:101B6000003400340034003480347C3402340234D5
:101B7000003400340034003400343F344034403406
:101B80000034003400340034FF34003400340034B6
:101B90000034003400340034FF34003400340034A6
:101BA0000034023402347C34803400340034003495
:101BB0000034403440343F340034003400340034C6
:101BC0000034063401340134023402340434043461
:101BD0000034003400340034003400340034003465
:101BE0000034003400340034003400340034003455
:101BF000003400345F3400340034003400340034E6
:101C00000034003407340034073400340034003426
:101C1000003414347F3414347F34143400340034EA
:101C2000003424342A347F342A341234003400340B
:101C30000034233413340834643462340034003400
:101C400000343634493455342234503400340034AE
:101C500000340034053403340034003400340034DC
:101C600000341C3422344134003400340034003455
:101C70000034413422341C34003400340034003445
:101C8000003408342A341C342A3408340034003434
:101C90000034083408343E34083408340034003446
:101CA0000034A03460340034003400340034003494
:101CB000003408340834083408340834003400345C
:101CC00000346034603400340034003400340034B4
:101CD0000034203410340834043402340034003426
:101CE00000343E345134493445343E3400340034F9
:101CF0000034003442347F34403400340034003443
:101D000000346234513449344934463400340034A8
:101D100000342234413449344934363400340034F8
:101D200000341834143412347F3410340034003446
:101D300000342734453445344534393400340034D4
:101D400000343C344A3449344934303400340034AB
:101D50000034013471340934053403340034003460
:101D6000003436344934493449343634003400348C
:101D7000003406344934493429341E3400340034E4
:101D80000034003436343634003400340034003447
:101D900000340034AC346C3400340034003400348B
:101DA0000034083414342234413400340034003414
:101DB000003414341434143414341434003400341F
:101DC00000344134223414340834003400340034F4
:101DD0000034023401345134093406340034003400
:101DE000003432344934793441343E3400340034E0
:101DF00000347E340934093409347E34003400342C
:101E000000347F34493449344934363400340034A2
:101E100000343E34413441344134223400340034FF
:101E200000347F344134413422341C3400340034D3
:101E300000347F3449344934493441340034003467
:101E400000347F3409340934093401340034003457
:101E500000343E344134413451347234003400345F
:101E600000347F340834083408347F3400340034BC
:101E7000003441347F3441340034003400340034C1
:101E800000342034403441343F34013400340034D1
:101E900000347F34083414342234413400340034A4
:101EA00000347F3440344034403440340034003413
:101EB00000347F3402340C3402347F340034003474
:101EC00000347F340434083410347F340034003458
:101ED00000343E344134413441343E340034003423
:101EE00000347F34093409340934063400340034B2
:101EF00000343E344134513421345E3400340034F3
:101F000000347F3409341934293446340034003421
:101F100000342634493449344934323400340034EE
:101F20000034013401347F3401340134003400348E
:101F300000343F344034403440343F3400340034C3
:101F400000341F342034403420341F340034003433
:101F500000343F344034383440343F3400340034AB
:101F600000346334143408341434633400340034DB
:101F7000003403340434783404340334003400343B
:101F8000003461345134493445344334003400342E
:101F900000347F34413441340034003400340034A0
:101FA0000034023404340834103420340034003453
:101FB0000034413441347F34003400340034003480
:101FC0000034043402340134023404340034003464
:101FD00000348034803480348034803400340034E1
:101FE000003401340234043400340034003400344A
:101FF00000342034543454345434783400340034AD
:1020000000347F34483444344434383400340034A9
:102010000034383444344434283400340034003438
:10202000003438344434443448347F340034003489
:1020300000343834543454345434183400340034B4
:10204000003408347E34093402340034003400345F
:1020500000341834A434A434A4347C340034003460
:1020600000347F34083404340434783400340034C9
:10207000003400347D340034003400340034003443
:102080000034803484347D3400340034003400342F
:1020900000347F34103428344434003400340034A5
:1020A000003441347F344034003400340034003490
:1020B00000347C340434183404347834003400346C
:1020C00000347C34083404347C340034003400346C
:1020D0000034383444344434383400340034003468
:1020E0000034FC34243424341834003400340034F4
:1020F0000034183424342434FC34003400340034E4
:10210000003400347C3408340434003400340034A7
:10211000003448345434543424340034003400340B
:10212000003404347F344434003400340034003448
:1021300000343C34403440347C34003400340034C7
:1021400000341C342034403420341C340034003437
:1021500000343C344034303440343C3400340034B7
:1021600000344434283410342834443400340034E7
:1021700000341C34A034A0347C34003400340034E7
:1021800000344434643454344C3444340034003423
:102190000034083436344134003400340034003420
:1021A000003400347F340034003400340034003410
:1021B0000034413436340834003400340034003400
:1021C0000034023401340134023401340034003468
:1021D0000034023405340534023400340034003451
:10281400C8300032890B0B2C080094310A242400A0
:102824009614080094310A242400161408009431E4
:102834000A24240016150800F00094310A247008B4
:102844002400910008002000111E252C700823008C
:102854009A000800200032083104300403190800EB
:102864008030B206080021000D160D172830240010
:102874009500960109309200C03094000800C030E1
:1028840021009E007008F2000130F235FF3E031D66
:10289400472C723501389D000800F2007235F100B2
:1028A4007108F3007008F1007108F30794310A24E9
:1028B400730824009100080021008E160E160030C3
:1028C40023009C0019309B0090309D0024309E0012
:1028D4009E161E129D171E150800F1009431142433
:1028E4009431783094311E249431003094311E2474
:1028F4009431710894311E249431943119240800C0
:10290400F100943114249431783094311E2494319C
:10291400603094311E249431710894311E24943112
:102924009431192408007808F0007908F100F201C4
:102934008E30FB007B08F300F401973120277008E8
:10294400F8007108F9007208FA000800F40074082D
:10295400B03894316F2494317208F3000430F336A4
:10296400890BB12C7308103894316F249431720898
:102974000F3994316F2408002000B7012530B800C6
:102984001430B9002F30B5003508B6002E08A10068
:102994002D08A0003630B5003508A2003730833149
:1029A400B823080068302100990022001D159D17E6
:1029B4001B3021008C00103023008C000C302100CF
:1029C4008E000C3023008E00F03021008D00F0309A
:1029D40023008D008B010800F10094310A24943106
:1029E4002400961594310A24943124001108F0002F
:1029F4007008F20094310A24943171080319052DEA
:102A040024009612072D2400961616167208080044
:102A14002000B5003508B3003308B600B701B8018B
:102A24002F30B3003308B4002E08A1002D08A000F5
:102A34003430B3003308A20036308331B823200089
:102A4400360886008701810108002000AA002508B5
:102A5400860087010108031908002408A700270835
:102A6400F5002508860087010108A8002808F6005B
:102A74002608A9002908F7002A088031D4209531B6
:102A840001302000A7002708A5070130A700270868
:102A9400A407292D523448342034203420343D34C2
:102AA4002034303430342E3430342034253420343F
:102AB4002034003400340034003400345434653499
:102AC4006D34703420343D342034303430342E347A
:102AD400303420344334203420340034003400347F
:102AE400003400347808790403199B2DFD01FD0A94
:102AF400F91B862D0130F835F90D890B7D2D013038
:102B0400FC007C08FD077A2D79087B02031D8C2DBF
:102B140078087A02031C922D7808FA027908FB3BA4
:102B24000130F936F80C890B932D0130FD02031D99
:102B3400862D7B08F9007A08F8000800F600F801F1
:102B44000830780203180800F20178089431A824A8
:102B54009531943114249531783094311E24953173
:102B6400603094311E249531F701803077020318C8
:102B7400C72D760894311E2495310130F50075086F
:102B8400F70780307702031CBB2D9431192495314B
:102B94000130F5007508F807A22DFB007808F0391C
:102BA400F9007908FC007808F9000330F935FF3E94
:102BB400031DD82D7935FA007A08FD0094311424C8
:102BC4009531F0017B0894314F2495317C080C3801
:102BD40094311E2495317C08083894311E24953193
:102BE4007D080C3894311E2495317D0808389431C1
:102BF4001E2495317B0896316E2695319431192423
:102C04000800F501F601700871040319322EF7016A
:102C1400F70AF11B172E0130F035F10D890B0E2E3A
:102C24000130F4007408F7070B2E0130F535F60D6A
:102C3400890B182E71087302031D222E700872026C
:102C4400031C292E7008F2027108F33B751401303D
:102C5400F136F00C890B2A2E0130F702031D172ED2
:102C64007608F1007508F0000800FB007808703958
:102C7400F9007908FC007808F9000330F935FF3EC3
:102C8400031D402E7935FA007A08FD00943114248E
:102C94009631F0017B0894314F2496317C088C38AE
:102CA40094311E2496317C08883894311E24963140
:102CB4007D080C3894311E2496317D0808389431EF
:102CC4001E2496317B0896316E269631F9007908D8
:102CD400F800943119240800F70094311424963133
:102CE400F001770894314F249631FA3094311E2440
:102CF4009631FE3094311E24963194310F2496314E
:102D0400F001F00A770894314F2496310130943160
:102D1400EE2496318039031D882E00309431EE2440
:102D24009631F4007408F5007030F4007408F50569
:102D340094310F249631F001770894314F24963161
:102D4400FA3094311E249631FE3094311E2496318B
:102D540094310F249631F001F00A770894314F240E
:102D6400963100309431EE249631F4007408F60064
:102D7400F60E0F30F6057508F4007408F607943162
:102D84001924760808002000A000943114249631F8
:102D9400F0012000200894314F2496312000A30133
:102DA400A4012408803AFA0080307A02031DDC2E44
:102DB400790823020318182F200023087807FA0043
:102DC4007A08860087010108F039FB007B08A1001E
:102DD40023087807FA007A08860087010108FB00B7
:102DE4000330FB35FF3E031DF32E7B35FC007C08CE
:102DF400A20021080D3894311E24963120002108A8
:102E0400093894311E249631200022080D3894315B
:102E14001E24963120002208093894311E2496314C
:102E240001302000A3070030A43DD32E2000200849
:102E340096316E26963194311924080073080319CB
:102E4400282F720871047004031D392F0030F0001C
:102E54000030F1000030F20008000130F500750880
:102E6400F3070130F236F10CF00C890B342FFE30ED
:102E740072050319522F2F2F0130F5007508F3073F
:102E84000130F007003003180130F1070030031857
:102E94000130F2070130F236F10CF00C890B4D2FA2
:102EA400FF30720503195F2F3E2F0130F30201300A
:102EB400F035F10DF20D890B5A2FF11B652F0230FD
:102EC40073020318572F73186D2FFF30F0057F30EE
:102ED400F105FF30F2050310F30C7308F500F60159
:102EE400F7011030F535F60DF70D890B742F7508C1
:102EF400F0047608F1047708F20474080319080052
:102F0400F2170800AE3094316F249731A830943111
:102F14006F2497313F3094316F249731D3309431FB
:102F24006F249731003094316F24973140309431BD
:102F34006F249731A13094316F249731C830943184
:102F44006F249731DA3094316F24973112309431F1
:102F54006F249731813094316F249731FF3094314D
:102F64006F249731A43094316F249731A630943173
:102F74006F249731D53094316F2497318030943158
:102F84006F249731D93094316F249731253094319F
:102F94006F249731DB3094316F2497312030943192
:102FA4006F249731223094316F249731003094315B
:102FB4006F249731073094316F249731B0309431B6
:102FC4006F249731103094316F249731003094314D
:102FD4006F249731203094316F249731023094312B
:102FE4006F2497318D3094316F249731143094319C
:102FF4006F249731AF3094316F24080001340034CA
:103004000A34003464340034E8340334103427348C
:10301400543465346D3470342034763461346C3413
:10302400753465342034693473343A3420342534A7
:1030340064342034463420347C3420344D346F34AA
:1030440069347334743475347234653420345034D0
:1030540065347234633465346E3474343A342034F1
:103064002534643420347C342034523441343234B2
:103074002034693473343A342034253464342034AD
:103084000A340D3400348034803480348034803405
:10309400803480348034C034C034C034C034C0344C
:1030A400C034C034C034C034C034C034C03400343C
:1030B4000034003400340034003400340034C034AC
:1030C400C034C034C034C0340034C0340034C034DC
:1030D4000034C0340034FF3400340034003400348D
:1030E400003400340034003400340034003400343C
:1030F40000340034FF340034003400340F3400341E
:10310400003400340034463469346C346C34203474
:1031140042346F34743474346C3465342034503431
:103124006C3473342134003450346C3461346E3470
:1031340074342034573461347434653472346534EF
:103144006434213421340034543465346D3470349F
:1031540065347234613474347534723465343A3499
:1031640000345734613474346534723469346E34E1
:1031740067342E342E342E3400344D346F34693495
:10318400733474347534723465343A340034253409
:1031940064342034463400342534643425346334B0
:0231A4000034F5
:020000040001F9
:04000E00E4CFFFFE3E
:00000001FF
